{"abi":[{"type":"constructor","inputs":[],"stateMutability":"nonpayable"},{"type":"function","name":"getCensusRoot","inputs":[],"outputs":[{"name":"root","type":"uint256","internalType":"uint256"}],"stateMutability":"view"},{"type":"function","name":"getRootBlockNumber","inputs":[{"name":"root","type":"uint256","internalType":"uint256"}],"outputs":[{"name":"blockNumber","type":"uint256","internalType":"uint256"}],"stateMutability":"view"},{"type":"function","name":"getTotalVotingPowerAtRoot","inputs":[{"name":"root","type":"uint256","internalType":"uint256"}],"outputs":[{"name":"totalVotingPower","type":"uint256","internalType":"uint256"}],"stateMutability":"view"},{"type":"function","name":"owner","inputs":[],"outputs":[{"name":"","type":"address","internalType":"address"}],"stateMutability":"view"},{"type":"function","name":"setWeight","inputs":[{"name":"account","type":"address","internalType":"address"},{"name":"newWeight","type":"uint88","internalType":"uint88"}],"outputs":[],"stateMutability":"nonpayable"},{"type":"function","name":"setWeights","inputs":[{"name":"accounts","type":"address[]","internalType":"address[]"},{"name":"weights","type":"uint88[]","internalType":"uint88[]"}],"outputs":[],"stateMutability":"nonpayable"},{"type":"function","name":"transferOwnership","inputs":[{"name":"newOwner","type":"address","internalType":"address"}],"outputs":[],"stateMutability":"nonpayable"},{"type":"function","name":"weightOf","inputs":[{"name":"","type":"address","internalType":"address"}],"outputs":[{"name":"","type":"uint88","internalType":"uint88"}],"stateMutability":"view"},{"type":"event","name":"WeightChanged","inputs":[{"name":"account","type":"address","indexed":true,"internalType":"address"},{"name":"previousWeight","type":"uint88","indexed":false,"internalType":"uint88"},{"name":"newWeight","type":"uint88","indexed":false,"internalType":"uint88"}],"anonymous":false}],"bytecode":{"object":"0x6080604052348015600e575f5ffd5b50335f5f6101000a81548173ffffffffffffffffffffffffffffffffffffffff021916908373ffffffffffffffffffffffffffffffffffffffff1602179055505f6002819055505f60055f60025481526020019081526020015f20819055506111308061007a5f395ff3fe608060405234801561000f575f5ffd5b5060043610610086575f3560e01c80638da5cb5b116100595780638da5cb5b14610122578063c1da869114610140578063dd4bc1011461015e578063f2fde38b1461018e57610086565b8063215411461461008a578063324e4a1f146100ba57806360f3ff0e146100d6578063650e5fcf146100f2575b5f5ffd5b6100a4600480360381019061009f9190610aa2565b6101aa565b6040516100b19190610adc565b60405180910390f35b6100d460048036038101906100cf9190610bab565b6101d8565b005b6100f060048036038101906100eb9190610cc3565b6105fa565b005b61010c60048036038101906101079190610aa2565b61082e565b6040516101199190610adc565b60405180910390f35b61012a61085a565b6040516101379190610d10565b60405180910390f35b61014861087e565b6040516101559190610adc565b60405180910390f35b61017860048036038101906101739190610d29565b610887565b6040516101859190610d63565b60405180910390f35b6101a860048036038101906101a39190610d29565b6108ae565b005b5f60025482036101be5760035490506101d3565b60055f8381526020019081526020015f205490505b919050565b5f5f9054906101000a900473ffffffffffffffffffffffffffffffffffffffff1673ffffffffffffffffffffffffffffffffffffffff163373ffffffffffffffffffffffffffffffffffffffff1614610266576040517f08c379a000000000000000000000000000000000000000000000000000000000815260040161025d90610dd6565b60405180910390fd5b8181905084849050146102ae576040517f08c379a00000000000000000000000000000000000000000000000000000000081526004016102a590610e3e565b60405180910390fd5b5f5f90505b848490508110156105f3575f60015f8787858181106102d5576102d4610e5c565b5b90506020020160208101906102ea9190610d29565b73ffffffffffffffffffffffffffffffffffffffff1673ffffffffffffffffffffffffffffffffffffffff1681526020019081526020015f205f9054906101000a90046affffffffffffffffffffff16905083838381811061034f5761034e610e5c565b5b90506020020160208101906103649190610e89565b60015f88888681811061037a57610379610e5c565b5b905060200201602081019061038f9190610d29565b73ffffffffffffffffffffffffffffffffffffffff1673ffffffffffffffffffffffffffffffffffffffff1681526020019081526020015f205f6101000a8154816affffffffffffffffffffff02191690836affffffffffffffffffffff160217905550806affffffffffffffffffffff1684848481811061041457610413610e5c565b5b90506020020160208101906104299190610e89565b6affffffffffffffffffffff1610610497578084848481811061044f5761044e610e5c565b5b90506020020160208101906104649190610e89565b61046e9190610ee1565b6affffffffffffffffffffff1660035f82825461048b9190610f1f565b925050819055506104ef565b8383838181106104aa576104a9610e5c565b5b90506020020160208101906104bf9190610e89565b816104ca9190610ee1565b6affffffffffffffffffffff1660035f8282546104e79190610f52565b925050819055505b85858381811061050257610501610e5c565b5b90506020020160208101906105179190610d29565b73ffffffffffffffffffffffffffffffffffffffff167fee82339564ef9f72eccdbb67b46a62198422524ab9c7e3fcbdd194fa1b46461b8286868681811061056257610561610e5c565b5b90506020020160208101906105779190610e89565b604051610585929190610f85565b60405180910390a26105e58686848181106105a3576105a2610e5c565b5b90506020020160208101906105b89190610d29565b8585858181106105cb576105ca610e5c565b5b90506020020160208101906105e09190610e89565b6109ec565b5080806001019150506102b3565b5050505050565b5f5f9054906101000a900473ffffffffffffffffffffffffffffffffffffffff1673ffffffffffffffffffffffffffffffffffffffff163373ffffffffffffffffffffffffffffffffffffffff1614610688576040517f08c379a000000000000000000000000000000000000000000000000000000000815260040161067f90610dd6565b60405180910390fd5b5f60015f8473ffffffffffffffffffffffffffffffffffffffff1673ffffffffffffffffffffffffffffffffffffffff1681526020019081526020015f205f9054906101000a90046affffffffffffffffffffff1690508160015f8573ffffffffffffffffffffffffffffffffffffffff1673ffffffffffffffffffffffffffffffffffffffff1681526020019081526020015f205f6101000a8154816affffffffffffffffffffff02191690836affffffffffffffffffffff160217905550806affffffffffffffffffffff16826affffffffffffffffffffff161061079e5780826107759190610ee1565b6affffffffffffffffffffff1660035f8282546107929190610f1f565b925050819055506107cf565b81816107aa9190610ee1565b6affffffffffffffffffffff1660035f8282546107c79190610f52565b925050819055505b8273ffffffffffffffffffffffffffffffffffffffff167fee82339564ef9f72eccdbb67b46a62198422524ab9c7e3fcbdd194fa1b46461b8284604051610817929190610f85565b60405180910390a261082983836109ec565b505050565b5f600254820361084057439050610855565b60045f8381526020019081526020015f205490505b919050565b5f5f9054906101000a900473ffffffffffffffffffffffffffffffffffffffff1681565b5f600254905090565b6001602052805f5260405f205f915054906101000a90046affffffffffffffffffffff1681565b5f5f9054906101000a900473ffffffffffffffffffffffffffffffffffffffff1673ffffffffffffffffffffffffffffffffffffffff163373ffffffffffffffffffffffffffffffffffffffff161461093c576040517f08c379a000000000000000000000000000000000000000000000000000000000815260040161093390610dd6565b60405180910390fd5b5f73ffffffffffffffffffffffffffffffffffffffff168173ffffffffffffffffffffffffffffffffffffffff16036109aa576040517f08c379a00000000000000000000000000000000000000000000000000000000081526004016109a190610ff6565b60405180910390fd5b805f5f6101000a81548173ffffffffffffffffffffffffffffffffffffffff021916908373ffffffffffffffffffffffffffffffffffffffff16021790555050565b5f60025490505f81848443604051602001610a0a94939291906110ad565b604051602081830303815290604052805190602001205f1c9050808214610a42574360045f8481526020019081526020015f20819055505b8060028190555060035460055f8381526020019081526020015f208190555050505050565b5f5ffd5b5f5ffd5b5f819050919050565b610a8181610a6f565b8114610a8b575f5ffd5b50565b5f81359050610a9c81610a78565b92915050565b5f60208284031215610ab757610ab6610a67565b5b5f610ac484828501610a8e565b91505092915050565b610ad681610a6f565b82525050565b5f602082019050610aef5f830184610acd565b92915050565b5f5ffd5b5f5ffd5b5f5ffd5b5f5f83601f840112610b1657610b15610af5565b5b8235905067ffffffffffffffff811115610b3357610b32610af9565b5b602083019150836020820283011115610b4f57610b4e610afd565b5b9250929050565b5f5f83601f840112610b6b57610b6a610af5565b5b8235905067ffffffffffffffff811115610b8857610b87610af9565b5b602083019150836020820283011115610ba457610ba3610afd565b5b9250929050565b5f5f5f5f60408587031215610bc357610bc2610a67565b5b5f85013567ffffffffffffffff811115610be057610bdf610a6b565b5b610bec87828801610b01565b9450945050602085013567ffffffffffffffff811115610c0f57610c0e610a6b565b5b610c1b87828801610b56565b925092505092959194509250565b5f73ffffffffffffffffffffffffffffffffffffffff82169050919050565b5f610c5282610c29565b9050919050565b610c6281610c48565b8114610c6c575f5ffd5b50565b5f81359050610c7d81610c59565b92915050565b5f6affffffffffffffffffffff82169050919050565b610ca281610c83565b8114610cac575f5ffd5b50565b5f81359050610cbd81610c99565b92915050565b5f5f60408385031215610cd957610cd8610a67565b5b5f610ce685828601610c6f565b9250506020610cf785828601610caf565b9150509250929050565b610d0a81610c48565b82525050565b5f602082019050610d235f830184610d01565b92915050565b5f60208284031215610d3e57610d3d610a67565b5b5f610d4b84828501610c6f565b91505092915050565b610d5d81610c83565b82525050565b5f602082019050610d765f830184610d54565b92915050565b5f82825260208201905092915050565b7f6f6e6c79206f776e6572000000000000000000000000000000000000000000005f82015250565b5f610dc0600a83610d7c565b9150610dcb82610d8c565b602082019050919050565b5f6020820190508181035f830152610ded81610db4565b9050919050565b7f6c656e677468206d69736d6174636800000000000000000000000000000000005f82015250565b5f610e28600f83610d7c565b9150610e3382610df4565b602082019050919050565b5f6020820190508181035f830152610e5581610e1c565b9050919050565b7f4e487b71000000000000000000000000000000000000000000000000000000005f52603260045260245ffd5b5f60208284031215610e9e57610e9d610a67565b5b5f610eab84828501610caf565b91505092915050565b7f4e487b71000000000000000000000000000000000000000000000000000000005f52601160045260245ffd5b5f610eeb82610c83565b9150610ef683610c83565b925082820390506affffffffffffffffffffff811115610f1957610f18610eb4565b5b92915050565b5f610f2982610a6f565b9150610f3483610a6f565b9250828201905080821115610f4c57610f4b610eb4565b5b92915050565b5f610f5c82610a6f565b9150610f6783610a6f565b9250828203905081811115610f7f57610f7e610eb4565b5b92915050565b5f604082019050610f985f830185610d54565b610fa56020830184610d54565b9392505050565b7f7a65726f206f776e6572000000000000000000000000000000000000000000005f82015250565b5f610fe0600a83610d7c565b9150610feb82610fac565b602082019050919050565b5f6020820190508181035f83015261100d81610fd4565b9050919050565b5f819050919050565b61102e61102982610a6f565b611014565b82525050565b5f8160601b9050919050565b5f61104a82611034565b9050919050565b5f61105b82611040565b9050919050565b61107361106e82610c48565b611051565b82525050565b5f8160a81b9050919050565b5f61108f82611079565b9050919050565b6110a76110a282610c83565b611085565b82525050565b5f6110b8828761101d565b6020820191506110c88286611062565b6014820191506110d88285611096565b600b820191506110e8828461101d565b6020820191508190509594505050505056fea2646970667358221220a391c92400d314692a7056b90b60eae8e9f340223edfc65e6c7ea17fb05c4d3364736f6c634300081c0033","linkReferences":{}},"methodIdentifiers":{"getCensusRoot()":"c1da8691","getRootBlockNumber(uint256)":"650e5fcf","getTotalVotingPowerAtRoot(uint256)":"21541146","owner()":"8da5cb5b","setWeight(address,uint88)":"60f3ff0e","setWeights(address[],uint88[])":"324e4a1f","transferOwnership(address)":"f2fde38b","weightOf(address)":"dd4bc101"},"id":1}