{"abi":[{"type":"constructor","inputs":[],"stateMutability":"nonpayable"},{"type":"function","name":"getCensusRoot","inputs":[],"outputs":[{"name":"root","type":"uint256","internalType":"uint256"}],"stateMutability":"view"},{"type":"function","name":"getRootBlockNumber","inputs":[{"name":"root","type":"uint256","internalType":"uint256"}],"outputs":[{"name":"blockNumber","type":"uint256","internalType":"uint256"}],"stateMutability":"view"},{"type":"function","name":"owner","inputs":[],"outputs":[{"name":"","type":"address","internalType":"address"}],"stateMutability":"view"},{"type":"function","name":"setWeight","inputs":[{"name":"account","type":"address","internalType":"address"},{"name":"newWeight","type":"uint88","internalType":"uint88"}],"outputs":[],"stateMutability":"nonpayable"},{"type":"function","name":"setWeights","inputs":[{"name":"accounts","type":"address[]","internalType":"address[]"},{"name":"weights","type":"uint88[]","internalType":"uint88[]"}],"outputs":[],"stateMutability":"nonpayable"},{"type":"function","name":"transferOwnership","inputs":[{"name":"newOwner","type":"address","internalType":"address"}],"outputs":[],"stateMutability":"nonpayable"},{"type":"function","name":"weightOf","inputs":[{"name":"","type":"address","internalType":"address"}],"outputs":[{"name":"","type":"uint88","internalType":"uint88"}],"stateMutability":"view"},{"type":"event","name":"WeightChanged","inputs":[{"name":"account","type":"address","indexed":true,"internalType":"address"},{"name":"previousWeight","type":"uint88","indexed":false,"internalType":"uint88"},{"name":"newWeight","type":"uint88","indexed":false,"internalType":"uint88"}],"anonymous":false}],"bytecode":{"object":"0x6080604052348015600e575f5ffd5b50335f5f6101000a81548173ffffffffffffffffffffffffffffffffffffffff021916908373ffffffffffffffffffffffffffffffffffffffff1602179055505f6002819055504360035f60025481526020019081526020015f2081905550610e398061007a5f395ff3fe608060405234801561000f575f5ffd5b506004361061007b575f3560e01c80638da5cb5b116100595780638da5cb5b146100e7578063c1da869114610105578063dd4bc10114610123578063f2fde38b146101535761007b565b8063324e4a1f1461007f57806360f3ff0e1461009b578063650e5fcf146100b7575b5f5ffd5b610099600480360381019061009491906108ff565b61016f565b005b6100b560048036038101906100b09190610a17565b610495565b005b6100d160048036038101906100cc9190610a88565b610642565b6040516100de9190610ac2565b60405180910390f35b6100ef61065c565b6040516100fc9190610aea565b60405180910390f35b61010d610680565b60405161011a9190610ac2565b60405180910390f35b61013d60048036038101906101389190610b03565b610689565b60405161014a9190610b3d565b60405180910390f35b61016d60048036038101906101689190610b03565b6106b0565b005b5f5f9054906101000a900473ffffffffffffffffffffffffffffffffffffffff1673ffffffffffffffffffffffffffffffffffffffff163373ffffffffffffffffffffffffffffffffffffffff16146101fd576040517f08c379a00000000000000000000000000000000000000000000000000000000081526004016101f490610bb0565b60405180910390fd5b818190508484905014610245576040517f08c379a000000000000000000000000000000000000000000000000000000000815260040161023c90610c18565b60405180910390fd5b5f5f90505b8484905081101561048e575f60015f87878581811061026c5761026b610c36565b5b90506020020160208101906102819190610b03565b73ffffffffffffffffffffffffffffffffffffffff1673ffffffffffffffffffffffffffffffffffffffff1681526020019081526020015f205f9054906101000a90046affffffffffffffffffffff1690508383838181106102e6576102e5610c36565b5b90506020020160208101906102fb9190610c63565b60015f88888681811061031157610310610c36565b5b90506020020160208101906103269190610b03565b73ffffffffffffffffffffffffffffffffffffffff1673ffffffffffffffffffffffffffffffffffffffff1681526020019081526020015f205f6101000a8154816affffffffffffffffffffff02191690836affffffffffffffffffffff16021790555085858381811061039d5761039c610c36565b5b90506020020160208101906103b29190610b03565b73ffffffffffffffffffffffffffffffffffffffff167fee82339564ef9f72eccdbb67b46a62198422524ab9c7e3fcbdd194fa1b46461b828686868181106103fd576103fc610c36565b5b90506020020160208101906104129190610c63565b604051610420929190610c8e565b60405180910390a261048086868481811061043e5761043d610c36565b5b90506020020160208101906104539190610b03565b85858581811061046657610465610c36565b5b905060200201602081019061047b9190610c63565b6107ee565b50808060010191505061024a565b5050505050565b5f5f9054906101000a900473ffffffffffffffffffffffffffffffffffffffff1673ffffffffffffffffffffffffffffffffffffffff163373ffffffffffffffffffffffffffffffffffffffff1614610523576040517f08c379a000000000000000000000000000000000000000000000000000000000815260040161051a90610bb0565b60405180910390fd5b5f60015f8473ffffffffffffffffffffffffffffffffffffffff1673ffffffffffffffffffffffffffffffffffffffff1681526020019081526020015f205f9054906101000a90046affffffffffffffffffffff1690508160015f8573ffffffffffffffffffffffffffffffffffffffff1673ffffffffffffffffffffffffffffffffffffffff1681526020019081526020015f205f6101000a8154816affffffffffffffffffffff02191690836affffffffffffffffffffff1602179055508273ffffffffffffffffffffffffffffffffffffffff167fee82339564ef9f72eccdbb67b46a62198422524ab9c7e3fcbdd194fa1b46461b828460405161062b929190610c8e565b60405180910390a261063d83836107ee565b505050565b5f60035f8381526020019081526020015f20549050919050565b5f5f9054906101000a900473ffffffffffffffffffffffffffffffffffffffff1681565b5f600254905090565b6001602052805f5260405f205f915054906101000a90046affffffffffffffffffffff1681565b5f5f9054906101000a900473ffffffffffffffffffffffffffffffffffffffff1673ffffffffffffffffffffffffffffffffffffffff163373ffffffffffffffffffffffffffffffffffffffff161461073e576040517f08c379a000000000000000000000000000000000000000000000000000000000815260040161073590610bb0565b60405180910390fd5b5f73ffffffffffffffffffffffffffffffffffffffff168173ffffffffffffffffffffffffffffffffffffffff16036107ac576040517f08c379a00000000000000000000000000000000000000000000000000000000081526004016107a390610cff565b60405180910390fd5b805f5f6101000a81548173ffffffffffffffffffffffffffffffffffffffff021916908373ffffffffffffffffffffffffffffffffffffffff16021790555050565b6002548282436040516020016108079493929190610db6565b604051602081830303815290604052805190602001205f1c6002819055504360035f60025481526020019081526020015f20819055505050565b5f5ffd5b5f5ffd5b5f5ffd5b5f5ffd5b5f5ffd5b5f5f83601f84011261086a57610869610849565b5b8235905067ffffffffffffffff8111156108875761088661084d565b5b6020830191508360208202830111156108a3576108a2610851565b5b9250929050565b5f5f83601f8401126108bf576108be610849565b5b8235905067ffffffffffffffff8111156108dc576108db61084d565b5b6020830191508360208202830111156108f8576108f7610851565b5b9250929050565b5f5f5f5f6040858703121561091757610916610841565b5b5f85013567ffffffffffffffff81111561093457610933610845565b5b61094087828801610855565b9450945050602085013567ffffffffffffffff81111561096357610962610845565b5b61096f878288016108aa565b925092505092959194509250565b5f73ffffffffffffffffffffffffffffffffffffffff82169050919050565b5f6109a68261097d565b9050919050565b6109b68161099c565b81146109c0575f5ffd5b50565b5f813590506109d1816109ad565b92915050565b5f6affffffffffffffffffffff82169050919050565b6109f6816109d7565b8114610a00575f5ffd5b50565b5f81359050610a11816109ed565b92915050565b5f5f60408385031215610a2d57610a2c610841565b5b5f610a3a858286016109c3565b9250506020610a4b85828601610a03565b9150509250929050565b5f819050919050565b610a6781610a55565b8114610a71575f5ffd5b50565b5f81359050610a8281610a5e565b92915050565b5f60208284031215610a9d57610a9c610841565b5b5f610aaa84828501610a74565b91505092915050565b610abc81610a55565b82525050565b5f602082019050610ad55f830184610ab3565b92915050565b610ae48161099c565b82525050565b5f602082019050610afd5f830184610adb565b92915050565b5f60208284031215610b1857610b17610841565b5b5f610b25848285016109c3565b91505092915050565b610b37816109d7565b82525050565b5f602082019050610b505f830184610b2e565b92915050565b5f82825260208201905092915050565b7f6f6e6c79206f776e6572000000000000000000000000000000000000000000005f82015250565b5f610b9a600a83610b56565b9150610ba582610b66565b602082019050919050565b5f6020820190508181035f830152610bc781610b8e565b9050919050565b7f6c656e677468206d69736d6174636800000000000000000000000000000000005f82015250565b5f610c02600f83610b56565b9150610c0d82610bce565b602082019050919050565b5f6020820190508181035f830152610c2f81610bf6565b9050919050565b7f4e487b71000000000000000000000000000000000000000000000000000000005f52603260045260245ffd5b5f60208284031215610c7857610c77610841565b5b5f610c8584828501610a03565b91505092915050565b5f604082019050610ca15f830185610b2e565b610cae6020830184610b2e565b9392505050565b7f7a65726f206f776e6572000000000000000000000000000000000000000000005f82015250565b5f610ce9600a83610b56565b9150610cf482610cb5565b602082019050919050565b5f6020820190508181035f830152610d1681610cdd565b9050919050565b5f819050919050565b610d37610d3282610a55565b610d1d565b82525050565b5f8160601b9050919050565b5f610d5382610d3d565b9050919050565b5f610d6482610d49565b9050919050565b610d7c610d778261099c565b610d5a565b82525050565b5f8160a81b9050919050565b5f610d9882610d82565b9050919050565b610db0610dab826109d7565b610d8e565b82525050565b5f610dc18287610d26565b602082019150610dd18286610d6b565b601482019150610de18285610d9f565b600b82019150610df18284610d26565b6020820191508190509594505050505056fea2646970667358221220e3c35e6c0f7c2e0d85e263e4431a840d273f5e8c5118d3d8a1fa713b80f83ed564736f6c634300081c0033","linkReferences":{}},"methodIdentifiers":{"getCensusRoot()":"c1da8691","getRootBlockNumber(uint256)":"650e5fcf","owner()":"8da5cb5b","setWeight(address,uint88)":"60f3ff0e","setWeights(address[],uint88[])":"324e4a1f","transferOwnership(address)":"f2fde38b","weightOf(address)":"dd4bc101"},"id":0}